{
  "transactions": [
    {
      "hash": "0x5f826e4a34f8020c22b32a0934107a267f2076e2c3b095d0d2a4443b85b9ae34",
      "transactionType": "CALL",
      "contractName": null,
      "contractAddress": "0xaf88d065e77c8cc2239327c5edb3a432268e5831",
      "function": "approve(address,uint256)",
      "arguments": [
        "0x25bA533C8BD1a00b1FA4cD807054d03e168dff92",
        "10000"
      ],
      "transaction": {
        "from": "0x55b3d73e525227a7f0b25e28e17c1e94006a25dd",
        "to": "0xaf88d065e77c8cc2239327c5edb3a432268e5831",
        "gas": "0xd042",
        "value": "0x0",
        "input": "0x095ea7b300000000000000000000000025ba533c8bd1a00b1fa4cd807054d03e168dff920000000000000000000000000000000000000000000000000000000000002710",
        "nonce": "0x62",
        "chainId": "0xa4b1"
      },
      "additionalContracts": [],
      "isFixedGasLimit": false
    },
    {
      "hash": "0x8a7e47648476aaecf1f59188b7d85372aa65ae25f2cd02dcaf81b804192bb7f9",
      "transactionType": "CALL",
      "contractName": null,
      "contractAddress": "0x25ba533c8bd1a00b1fa4cd807054d03e168dff92",
      "function": "deposit(address,uint256)",
      "arguments": [
        "0xaf88d065e77c8cC2239327C5EDb3A432268e5831",
        "10000"
      ],
      "transaction": {
        "from": "0x55b3d73e525227a7f0b25e28e17c1e94006a25dd",
        "to": "0x25ba533c8bd1a00b1fa4cd807054d03e168dff92",
        "gas": "0x19dcf",
        "value": "0x0",
        "input": "0x47e7ef24000000000000000000000000af88d065e77c8cc2239327c5edb3a432268e58310000000000000000000000000000000000000000000000000000000000002710",
        "nonce": "0x63",
        "chainId": "0xa4b1"
      },
      "additionalContracts": [],
      "isFixedGasLimit": false
    },
    {
      "hash": "0xf5e964edb4947270a5e35f571bddbb798029262cd78dd4bf3c0bb75e3fbd3f86",
      "transactionType": "CALL",
      "contractName": null,
      "contractAddress": "0x25ba533c8bd1a00b1fa4cd807054d03e168dff92",
      "function": "executeStrategy(address,bytes,(address,uint256)[])",
      "arguments": [
        "0xE592427A0AEce92De3Edee1F18E0157C05861564",
        "0x414bf389000000000000000000000000af88d065e77c8cc2239327c5edb3a432268e58310000000000000000000000002f2a2543b76a4166549f7aab2e75bef0aefc5b0f00000000000000000000000000000000000000000000000000000000000001f400000000000000000000000025ba533c8bd1a00b1fa4cd807054d03e168dff92000000000000000000000000000000000000000000000000000000006868d008000000000000000000000000000000000000000000000000000000000000271000000000000000000000000000000000000000000000000000000000000000000000000000000000000000000000000000000000000000000000000000000000",
        "[(0xaf88d065e77c8cC2239327C5EDb3A432268e5831, 10000)]"
      ],
      "transaction": {
        "from": "0x55b3d73e525227a7f0b25e28e17c1e94006a25dd",
        "to": "0x25ba533c8bd1a00b1fa4cd807054d03e168dff92",
        "gas": "0x3ee7a",
        "value": "0x0",
        "input": "0x11cd6063000000000000000000000000e592427a0aece92de3edee1f18e0157c05861564000000000000000000000000000000000000000000000000000000000000006000000000000000000000000000000000000000000000000000000000000001a00000000000000000000000000000000000000000000000000000000000000104414bf389000000000000000000000000af88d065e77c8cc2239327c5edb3a432268e58310000000000000000000000002f2a2543b76a4166549f7aab2e75bef0aefc5b0f00000000000000000000000000000000000000000000000000000000000001f400000000000000000000000025ba533c8bd1a00b1fa4cd807054d03e168dff92000000000000000000000000000000000000000000000000000000006868d008000000000000000000000000000000000000000000000000000000000000271000000000000000000000000000000000000000000000000000000000000000000000000000000000000000000000000000000000000000000000000000000000000000000000000000000000000000000000000000000000000000000000000000000000000000000000000000000000000000000000000000000001000000000000000000000000af88d065e77c8cc2239327c5edb3a432268e58310000000000000000000000000000000000000000000000000000000000002710",
        "nonce": "0x64",
        "chainId": "0xa4b1"
      },
      "additionalContracts": [],
      "isFixedGasLimit": false
    }
  ],
  "receipts": [
    {
      "status": "0x1",
      "cumulativeGasUsed": "0x339c9",
      "logs": [
        {
          "address": "0xaf88d065e77c8cc2239327c5edb3a432268e5831",
          "topics": [
            "0x8c5be1e5ebec7d5bd14f71427d1e84f3dd0314c0f7b2291e5b200ac8c7c3b925",
            "0x00000000000000000000000055b3d73e525227a7f0b25e28e17c1e94006a25dd",
            "0x00000000000000000000000025ba533c8bd1a00b1fa4cd807054d03e168dff92"
          ],
          "data": "0x0000000000000000000000000000000000000000000000000000000000002710",
          "blockHash": "0x172b80d2c2d1a98e780039b460c9f49d6223c0c6af5d102b7b0e2e9b78e90fed",
          "blockNumber": "0x15201b04",
          "transactionHash": "0x5f826e4a34f8020c22b32a0934107a267f2076e2c3b095d0d2a4443b85b9ae34",
          "transactionIndex": "0x3",
          "logIndex": "0x4",
          "removed": false
        }
      ],
      "logsBloom": "0x00000000000000000000000000000000000000000000000000000000000000000000000000000000000000000000000000000001001000000000000400200000000000000000000000000000000000000000000000000000000000000000000000000000000000000000000000000000000000000000000040000000000000000000000000000000000000000000000000000000000000000000000000000000020000000000000000000000000020000000000000000000000000000000000000002000000000000000000000000000000000000000000000000000000000000810000000000000000000000000280000000000000000000000000000000000",
      "type": "0x2",
      "transactionHash": "0x5f826e4a34f8020c22b32a0934107a267f2076e2c3b095d0d2a4443b85b9ae34",
      "transactionIndex": "0x3",
      "blockHash": "0x172b80d2c2d1a98e780039b460c9f49d6223c0c6af5d102b7b0e2e9b78e90fed",
      "blockNumber": "0x15201b04",
      "gasUsed": "0x9ced",
      "effectiveGasPrice": "0x989680",
      "from": "0x55b3d73e525227a7f0b25e28e17c1e94006a25dd",
      "to": "0xaf88d065e77c8cc2239327c5edb3a432268e5831",
      "contractAddress": null,
      "gasUsedForL1": "0x738",
      "l1BlockNumber": "0x15caf59",
      "timeboosted": false
    },
    {
      "status": "0x1",
      "cumulativeGasUsed": "0x249b0",
      "logs": [
        {
          "address": "0xaf88d065e77c8cc2239327c5edb3a432268e5831",
          "topics": [
            "0xddf252ad1be2c89b69c2b068fc378daa952ba7f163c4a11628f55a4df523b3ef",
            "0x00000000000000000000000055b3d73e525227a7f0b25e28e17c1e94006a25dd",
            "0x00000000000000000000000025ba533c8bd1a00b1fa4cd807054d03e168dff92"
          ],
          "data": "0x0000000000000000000000000000000000000000000000000000000000002710",
          "blockHash": "0x8184217c117aa5abb7730f1405e24a857c9d87121d9283115686e8296eddc966",
          "blockNumber": "0x15201b0c",
          "transactionHash": "0x8a7e47648476aaecf1f59188b7d85372aa65ae25f2cd02dcaf81b804192bb7f9",
          "transactionIndex": "0x3",
          "logIndex": "0x3",
          "removed": false
        },
        {
          "address": "0x25ba533c8bd1a00b1fa4cd807054d03e168dff92",
          "topics": [
            "0xbc7c8a4d8049a3f99a02f2a20640c206a2e4d3f2fa54fd20da9f01fda3620cda",
            "0x000000000000000000000000af88d065e77c8cc2239327c5edb3a432268e5831"
          ],
          "data": "0x0000000000000000000000000000000000000000000000000000000000002710",
          "blockHash": "0x8184217c117aa5abb7730f1405e24a857c9d87121d9283115686e8296eddc966",
          "blockNumber": "0x15201b0c",
          "transactionHash": "0x8a7e47648476aaecf1f59188b7d85372aa65ae25f2cd02dcaf81b804192bb7f9",
          "transactionIndex": "0x3",
          "logIndex": "0x4",
          "removed": false
        }
      ],
      "logsBloom": "0x00000001000000000000000000000000000000000000000000000000000000000000010100000000100001000000000000000001001000000000000400000000000000000000000000000008000000000000000000000000000000000000000000000000000000000000000000000000000000000000000040080010000000000000000000000000000000000000000000000000000000000000000000000000000000000000000000000000000020000000000000000000000000000400000000002402000000000000000000000000000000000000000000000000000000000800000000000000000000000000280000000000002000000000000000000000",
      "type": "0x2",
      "transactionHash": "0x8a7e47648476aaecf1f59188b7d85372aa65ae25f2cd02dcaf81b804192bb7f9",
      "transactionIndex": "0x3",
      "blockHash": "0x8184217c117aa5abb7730f1405e24a857c9d87121d9283115686e8296eddc966",
      "blockNumber": "0x15201b0c",
      "gasUsed": "0x110e3",
      "effectiveGasPrice": "0x989680",
      "from": "0x55b3d73e525227a7f0b25e28e17c1e94006a25dd",
      "to": "0x25ba533c8bd1a00b1fa4cd807054d03e168dff92",
      "contractAddress": null,
      "gasUsedForL1": "0x742",
      "l1BlockNumber": "0x15caf59",
      "timeboosted": false
    },
    {
      "status": "0x1",
      "cumulativeGasUsed": "0x2e6a2",
      "logs": [
        {
          "address": "0xaf88d065e77c8cc2239327c5edb3a432268e5831",
          "topics": [
            "0x8c5be1e5ebec7d5bd14f71427d1e84f3dd0314c0f7b2291e5b200ac8c7c3b925",
            "0x00000000000000000000000025ba533c8bd1a00b1fa4cd807054d03e168dff92",
            "0x000000000000000000000000e592427a0aece92de3edee1f18e0157c05861564"
          ],
          "data": "0x0000000000000000000000000000000000000000000000000000000000002710",
          "blockHash": "0x6d726d537451878dfc6e8cf36b2018242bf484178339b3af2e0f30d6cef6620c",
          "blockNumber": "0x15201b15",
          "transactionHash": "0xf5e964edb4947270a5e35f571bddbb798029262cd78dd4bf3c0bb75e3fbd3f86",
          "transactionIndex": "0x1",
          "logIndex": "0x0",
          "removed": false
        },
        {
          "address": "0x25ba533c8bd1a00b1fa4cd807054d03e168dff92",
          "topics": [
            "0xc532e6b60637d86dd3fe55f7548ed169de9c79cfdef610593bea3569f079bc65",
            "0x000000000000000000000000af88d065e77c8cc2239327c5edb3a432268e5831",
            "0x000000000000000000000000e592427a0aece92de3edee1f18e0157c05861564"
          ],
          "data": "0x0000000000000000000000000000000000000000000000000000000000002710",
          "blockHash": "0x6d726d537451878dfc6e8cf36b2018242bf484178339b3af2e0f30d6cef6620c",
          "blockNumber": "0x15201b15",
          "transactionHash": "0xf5e964edb4947270a5e35f571bddbb798029262cd78dd4bf3c0bb75e3fbd3f86",
          "transactionIndex": "0x1",
          "logIndex": "0x1",
          "removed": false
        },
        {
          "address": "0x2f2a2543b76a4166549f7aab2e75bef0aefc5b0f",
          "topics": [
            "0xddf252ad1be2c89b69c2b068fc378daa952ba7f163c4a11628f55a4df523b3ef",
            "0x0000000000000000000000000e4831319a50228b9e450861297ab92dee15b44f",
            "0x00000000000000000000000025ba533c8bd1a00b1fa4cd807054d03e168dff92"
          ],
          "data": "0x0000000000000000000000000000000000000000000000000000000000000009",
          "blockHash": "0x6d726d537451878dfc6e8cf36b2018242bf484178339b3af2e0f30d6cef6620c",
          "blockNumber": "0x15201b15",
          "transactionHash": "0xf5e964edb4947270a5e35f571bddbb798029262cd78dd4bf3c0bb75e3fbd3f86",
          "transactionIndex": "0x1",
          "logIndex": "0x2",
          "removed": false
        },
        {
          "address": "0xaf88d065e77c8cc2239327c5edb3a432268e5831",
          "topics": [
            "0xddf252ad1be2c89b69c2b068fc378daa952ba7f163c4a11628f55a4df523b3ef",
            "0x00000000000000000000000025ba533c8bd1a00b1fa4cd807054d03e168dff92",
            "0x0000000000000000000000000e4831319a50228b9e450861297ab92dee15b44f"
          ],
          "data": "0x0000000000000000000000000000000000000000000000000000000000002710",
          "blockHash": "0x6d726d537451878dfc6e8cf36b2018242bf484178339b3af2e0f30d6cef6620c",
          "blockNumber": "0x15201b15",
          "transactionHash": "0xf5e964edb4947270a5e35f571bddbb798029262cd78dd4bf3c0bb75e3fbd3f86",
          "transactionIndex": "0x1",
          "logIndex": "0x3",
          "removed": false
        },
        {
          "address": "0x0e4831319a50228b9e450861297ab92dee15b44f",
          "topics": [
            "0xc42079f94a6350d7e6235f29174924f928cc2ac818eb64fed8004e115fbcca67",
            "0x000000000000000000000000e592427a0aece92de3edee1f18e0157c05861564",
            "0x00000000000000000000000025ba533c8bd1a00b1fa4cd807054d03e168dff92"
          ],
          "data": "0xfffffffffffffffffffffffffffffffffffffffffffffffffffffffffffffff700000000000000000000000000000000000000000000000000000000000027100000000000000000000000000000000000000020e377acf06168dcc215f75bc400000000000000000000000000000000000000000000000000000346c14530ec00000000000000000000000000000000000000000000000000000000000110e9",
          "blockHash": "0x6d726d537451878dfc6e8cf36b2018242bf484178339b3af2e0f30d6cef6620c",
          "blockNumber": "0x15201b15",
          "transactionHash": "0xf5e964edb4947270a5e35f571bddbb798029262cd78dd4bf3c0bb75e3fbd3f86",
          "transactionIndex": "0x1",
          "logIndex": "0x4",
          "removed": false
        },
        {
          "address": "0x25ba533c8bd1a00b1fa4cd807054d03e168dff92",
          "topics": [
            "0x6a9d52079a1ac0ea72c563072a89036e4144243170fda6efc656b566af5e6459",
            "0x000000000000000000000000e592427a0aece92de3edee1f18e0157c05861564"
          ],
          "data": "0x00000000000000000000000000000000000000000000000000000000000000200000000000000000000000000000000000000000000000000000000000000104414bf389000000000000000000000000af88d065e77c8cc2239327c5edb3a432268e58310000000000000000000000002f2a2543b76a4166549f7aab2e75bef0aefc5b0f00000000000000000000000000000000000000000000000000000000000001f400000000000000000000000025ba533c8bd1a00b1fa4cd807054d03e168dff92000000000000000000000000000000000000000000000000000000006868d00800000000000000000000000000000000000000000000000000000000000027100000000000000000000000000000000000000000000000000000000000000000000000000000000000000000000000000000000000000000000000000000000000000000000000000000000000000000000000000000000000000000",
          "blockHash": "0x6d726d537451878dfc6e8cf36b2018242bf484178339b3af2e0f30d6cef6620c",
          "blockNumber": "0x15201b15",
          "transactionHash": "0xf5e964edb4947270a5e35f571bddbb798029262cd78dd4bf3c0bb75e3fbd3f86",
          "transactionIndex": "0x1",
          "logIndex": "0x5",
          "removed": false
        }
      ],
      "logsBloom": "0x00000003000000000000000000000000000000008000000000000000000000000000010000000000120000000000000000000001001020000000100000200000000000200000000800000008000008002000000000000000000000000000000000000000000000000000100000000000000000000000000040000010000800000000000000000000000000400000000000000000000000000000080000000000020000000000000000000000800020000010000040000000000000800400000000002602000000000008000000000000000000000000000000010000000000000010000000000000000000000000200000000000002000000000000000000000",
      "type": "0x2",
      "transactionHash": "0xf5e964edb4947270a5e35f571bddbb798029262cd78dd4bf3c0bb75e3fbd3f86",
      "transactionIndex": "0x1",
      "blockHash": "0x6d726d537451878dfc6e8cf36b2018242bf484178339b3af2e0f30d6cef6620c",
      "blockNumber": "0x15201b15",
      "gasUsed": "0x2e6a2",
      "effectiveGasPrice": "0x989680",
      "from": "0x55b3d73e525227a7f0b25e28e17c1e94006a25dd",
      "to": "0x25ba533c8bd1a00b1fa4cd807054d03e168dff92",
      "contractAddress": null,
      "gasUsedForL1": "0xdf5",
      "l1BlockNumber": "0x15caf59",
      "timeboosted": false
    }
  ],
  "libraries": [],
  "pending": [],
  "returns": {},
  "timestamp": 1751699189,
  "chain": 42161,
  "commit": "852112c"
}