{
  "transactions": [
    {
      "hash": "0x8961bd22139a91193939c675917b638f113153c60e19abaf367c2e54850fd179",
      "transactionType": "CALL",
      "contractName": null,
      "contractAddress": "0x577264f9fc6595ae64d82d5a80a4bc0c01d30135",
      "function": "setManager(address)",
      "arguments": [
        "0x55b3d73e525227A7F0b25e28e17c1E94006A25dd"
      ],
      "transaction": {
        "from": "0x55b3d73e525227a7f0b25e28e17c1e94006a25dd",
        "to": "0x577264f9fc6595ae64d82d5a80a4bc0c01d30135",
        "gas": "0x163b7",
        "value": "0x0",
        "input": "0xd0ebdbe700000000000000000000000055b3d73e525227a7f0b25e28e17c1e94006a25dd",
        "nonce": "0x1e",
        "chainId": "0xa4b1"
      },
      "additionalContracts": [],
      "isFixedGasLimit": false
    }
  ],
  "receipts": [
    {
      "status": "0x1",
      "cumulativeGasUsed": "0x474afa",
      "logs": [
        {
          "address": "0x577264f9fc6595ae64d82d5a80a4bc0c01d30135",
          "topics": [
            "0xc64707e618a83637fc41ad1e3aa4242bd5fdd353f3d60bc0faf40db0d7d86078",
            "0x0000000000000000000000000000000000000000000000000000000000000000",
            "0x00000000000000000000000055b3d73e525227a7f0b25e28e17c1e94006a25dd"
          ],
          "data": "0x",
          "blockHash": "0xb0e7ed8b30118e980a02159378dfb743d2a83804b70bda927bad820cf1ae29b9",
          "blockNumber": "0x14c851de",
          "transactionHash": "0x8961bd22139a91193939c675917b638f113153c60e19abaf367c2e54850fd179",
          "transactionIndex": "0xa",
          "logIndex": "0xb",
          "removed": false
        }
      ],
      "logsBloom": "0x00000000000000000000001000000000000000000000000000000000000000000000000000000000000000000000000000000000000000000000000400000000000000000010000000000000000000000000000000000000000000000000000000000000020000000000000000000800000000000000000000000000000000000000000000000000080000000000000000000000000000000000000000000000000000000000000000000000000000000000000000000000000000000000000000000000000000000800000000000000000000000000000000000000000020000800000000000080000000000000080000010000000000000000000000000000",
      "type": "0x2",
      "transactionHash": "0x8961bd22139a91193939c675917b638f113153c60e19abaf367c2e54850fd179",
      "transactionIndex": "0xa",
      "blockHash": "0xb0e7ed8b30118e980a02159378dfb743d2a83804b70bda927bad820cf1ae29b9",
      "blockNumber": "0x14c851de",
      "gasUsed": "0xfad3",
      "effectiveGasPrice": "0x10c2870",
      "from": "0x55b3d73e525227a7f0b25e28e17c1e94006a25dd",
      "to": "0x577264f9fc6595ae64d82d5a80a4bc0c01d30135",
      "contractAddress": null,
      "gasUsedForL1": "0x2c3b",
      "l1BlockNumber": "0x15adcfe",
      "timeboosted": false
    }
  ],
  "libraries": [],
  "pending": [],
  "returns": {},
  "timestamp": 1750257741,
  "chain": 42161,
  "commit": "c698205"
}